{
    "_format": "hh-sol-artifact-1",
    "contractName": "Enroll",
    "sourceName": "contracts/Enroll.sol",
    "abi": [
        {
            "inputs": [],
            "stateMutability": "nonpayable",
            "type": "constructor"
        },
        {
            "anonymous": false,
            "inputs": [
                {
                    "indexed": false,
                    "internalType": "string",
                    "name": "github",
                    "type": "string"
                },
                {
                    "indexed": false,
                    "internalType": "string",
                    "name": "discord",
                    "type": "string"
                },
                {
                    "indexed": false,
                    "internalType": "address",
                    "name": "owner",
                    "type": "address"
                }
            ],
            "name": "EnrollAccepted",
            "type": "event"
        },
        {
            "inputs": [
                {
                    "internalType": "string",
                    "name": "github",
                    "type": "string"
                }
            ],
            "name": "check",
            "outputs": [
                {
                    "components": [
                        {
                            "internalType": "address",
                            "name": "owner",
                            "type": "address"
                        },
                        {
                            "internalType": "string",
                            "name": "github",
                            "type": "string"
                        },
                        {
                            "internalType": "string",
                            "name": "discord",
                            "type": "string"
                        }
                    ],
                    "internalType": "struct Enrollment",
                    "name": "",
                    "type": "tuple"
                }
            ],
            "stateMutability": "view",
            "type": "function"
        },
        {
            "inputs": [
                {
                    "internalType": "string",
                    "name": "github",
                    "type": "string"
                },
                {
                    "internalType": "string",
                    "name": "discord",
                    "type": "string"
                },
                {
                    "internalType": "bytes32",
                    "name": "_hashedMessage",
                    "type": "bytes32"
                },
                {
                    "internalType": "uint8",
                    "name": "_v",
                    "type": "uint8"
                },
                {
                    "internalType": "bytes32",
                    "name": "_r",
                    "type": "bytes32"
                },
                {
                    "internalType": "bytes32",
                    "name": "_s",
                    "type": "bytes32"
                }
            ],
            "name": "enroll",
            "outputs": [],
            "stateMutability": "nonpayable",
            "type": "function"
        },
        {
            "inputs": [
                {
                    "internalType": "bytes32",
                    "name": "_hashedMessage",
                    "type": "bytes32"
                },
                {
                    "internalType": "uint8",
                    "name": "_v",
                    "type": "uint8"
                },
                {
                    "internalType": "bytes32",
                    "name": "_r",
                    "type": "bytes32"
                },
                {
                    "internalType": "bytes32",
                    "name": "_s",
                    "type": "bytes32"
                }
            ],
            "name": "verifyMessage",
            "outputs": [
                {
                    "internalType": "address",
                    "name": "",
                    "type": "address"
                }
            ],
            "stateMutability": "pure",
            "type": "function"
        }
    ],
    "bytecode": "0x608060405234801561001057600080fd5b50611011806100206000396000f3fe608060405234801561001057600080fd5b50600436106100415760003560e01c8063183e5f8a14610046578063b6f921ad14610062578063d3cf32df14610092575b600080fd5b610060600480360381019061005b919061076e565b6100c2565b005b61007c60048036038101906100779190610833565b6102f9565b6040516100899190610993565b60405180910390f35b6100ac60048036038101906100a791906109b5565b6104ab565b6040516100b99190610a2b565b60405180910390f35b60006100d0858585856104ab565b90508073ffffffffffffffffffffffffffffffffffffffff163373ffffffffffffffffffffffffffffffffffffffff1614610140576040517f08c379a000000000000000000000000000000000000000000000000000000000815260040161013790610aa3565b60405180910390fd5b600073ffffffffffffffffffffffffffffffffffffffff166000886040516101689190610aff565b908152602001604051809103902060000160009054906101000a900473ffffffffffffffffffffffffffffffffffffffff1673ffffffffffffffffffffffffffffffffffffffff16146101f0576040517f08c379a00000000000000000000000000000000000000000000000000000000081526004016101e790610b62565b60405180910390fd5b60405180606001604052803373ffffffffffffffffffffffffffffffffffffffff168152602001888152602001878152506000886040516102319190610aff565b908152602001604051809103902060008201518160000160006101000a81548173ffffffffffffffffffffffffffffffffffffffff021916908373ffffffffffffffffffffffffffffffffffffffff160217905550602082015181600101908161029b9190610d98565b5060408201518160020190816102b19190610d98565b509050507f50100b2bd1814176f908bf8b24d2a50bd363a7607d81115cadd2ce03b36332ad8787336040516102e893929190610ea3565b60405180910390a150505050505050565b61030161056e565b6000826040516103119190610aff565b90815260200160405180910390206040518060600160405290816000820160009054906101000a900473ffffffffffffffffffffffffffffffffffffffff1673ffffffffffffffffffffffffffffffffffffffff1673ffffffffffffffffffffffffffffffffffffffff16815260200160018201805461039090610bb1565b80601f01602080910402602001604051908101604052809291908181526020018280546103bc90610bb1565b80156104095780601f106103de57610100808354040283529160200191610409565b820191906000526020600020905b8154815290600101906020018083116103ec57829003601f168201915b5050505050815260200160028201805461042290610bb1565b80601f016020809104026020016040519081016040528092919081815260200182805461044e90610bb1565b801561049b5780601f106104705761010080835404028352916020019161049b565b820191906000526020600020905b81548152906001019060200180831161047e57829003601f168201915b5050505050815250509050919050565b6000806040518060400160405280601c81526020017f19457468657265756d205369676e6564204d6573736167653a0a3332000000008152509050600081876040516020016104fb929190610f50565b604051602081830303815290604052805190602001209050600181878787604051600081526020016040526040516105369493929190610f96565b6020604051602081039080840390855afa158015610558573d6000803e3d6000fd5b5050506020604051035192505050949350505050565b6040518060600160405280600073ffffffffffffffffffffffffffffffffffffffff16815260200160608152602001606081525090565b6000604051905090565b600080fd5b600080fd5b600080fd5b600080fd5b6000601f19601f8301169050919050565b7f4e487b7100000000000000000000000000000000000000000000000000000000600052604160045260246000fd5b61060c826105c3565b810181811067ffffffffffffffff8211171561062b5761062a6105d4565b5b80604052505050565b600061063e6105a5565b905061064a8282610603565b919050565b600067ffffffffffffffff82111561066a576106696105d4565b5b610673826105c3565b9050602081019050919050565b82818337600083830152505050565b60006106a261069d8461064f565b610634565b9050828152602081018484840111156106be576106bd6105be565b5b6106c9848285610680565b509392505050565b600082601f8301126106e6576106e56105b9565b5b81356106f684826020860161068f565b91505092915050565b6000819050919050565b610712816106ff565b811461071d57600080fd5b50565b60008135905061072f81610709565b92915050565b600060ff82169050919050565b61074b81610735565b811461075657600080fd5b50565b60008135905061076881610742565b92915050565b60008060008060008060c0878903121561078b5761078a6105af565b5b600087013567ffffffffffffffff8111156107a9576107a86105b4565b5b6107b589828a016106d1565b965050602087013567ffffffffffffffff8111156107d6576107d56105b4565b5b6107e289828a016106d1565b95505060406107f389828a01610720565b945050606061080489828a01610759565b935050608061081589828a01610720565b92505060a061082689828a01610720565b9150509295509295509295565b600060208284031215610849576108486105af565b5b600082013567ffffffffffffffff811115610867576108666105b4565b5b610873848285016106d1565b91505092915050565b600073ffffffffffffffffffffffffffffffffffffffff82169050919050565b60006108a78261087c565b9050919050565b6108b78161089c565b82525050565b600081519050919050565b600082825260208201905092915050565b60005b838110156108f75780820151818401526020810190506108dc565b60008484015250505050565b600061090e826108bd565b61091881856108c8565b93506109288185602086016108d9565b610931816105c3565b840191505092915050565b600060608301600083015161095460008601826108ae565b506020830151848203602086015261096c8282610903565b915050604083015184820360408601526109868282610903565b9150508091505092915050565b600060208201905081810360008301526109ad818461093c565b905092915050565b600080600080608085870312156109cf576109ce6105af565b5b60006109dd87828801610720565b94505060206109ee87828801610759565b93505060406109ff87828801610720565b9250506060610a1087828801610720565b91505092959194509250565b610a258161089c565b82525050565b6000602082019050610a406000830184610a1c565b92915050565b600082825260208201905092915050565b7f53656e646572206973206e6f7420746865207369676e65720000000000000000600082015250565b6000610a8d601883610a46565b9150610a9882610a57565b602082019050919050565b60006020820190508181036000830152610abc81610a80565b9050919050565b600081905092915050565b6000610ad9826108bd565b610ae38185610ac3565b9350610af38185602086016108d9565b80840191505092915050565b6000610b0b8284610ace565b915081905092915050565b7f57616c6c657420616c7265616479207265676973746572656421000000000000600082015250565b6000610b4c601a83610a46565b9150610b5782610b16565b602082019050919050565b60006020820190508181036000830152610b7b81610b3f565b9050919050565b7f4e487b7100000000000000000000000000000000000000000000000000000000600052602260045260246000fd5b60006002820490506001821680610bc957607f821691505b602082108103610bdc57610bdb610b82565b5b50919050565b60008190508160005260206000209050919050565b60006020601f8301049050919050565b600082821b905092915050565b600060088302610c447fffffffffffffffffffffffffffffffffffffffffffffffffffffffffffffffff82610c07565b610c4e8683610c07565b95508019841693508086168417925050509392505050565b6000819050919050565b6000819050919050565b6000610c95610c90610c8b84610c66565b610c70565b610c66565b9050919050565b6000819050919050565b610caf83610c7a565b610cc3610cbb82610c9c565b848454610c14565b825550505050565b600090565b610cd8610ccb565b610ce3818484610ca6565b505050565b5b81811015610d0757610cfc600082610cd0565b600181019050610ce9565b5050565b601f821115610d4c57610d1d81610be2565b610d2684610bf7565b81016020851015610d35578190505b610d49610d4185610bf7565b830182610ce8565b50505b505050565b600082821c905092915050565b6000610d6f60001984600802610d51565b1980831691505092915050565b6000610d888383610d5e565b9150826002028217905092915050565b610da1826108bd565b67ffffffffffffffff811115610dba57610db96105d4565b5b610dc48254610bb1565b610dcf828285610d0b565b600060209050601f831160018114610e025760008415610df0578287015190505b610dfa8582610d7c565b865550610e62565b601f198416610e1086610be2565b60005b82811015610e3857848901518255600182019150602085019450602081019050610e13565b86831015610e555784890151610e51601f891682610d5e565b8355505b6001600288020188555050505b505050505050565b6000610e75826108bd565b610e7f8185610a46565b9350610e8f8185602086016108d9565b610e98816105c3565b840191505092915050565b60006060820190508181036000830152610ebd8186610e6a565b90508181036020830152610ed18185610e6a565b9050610ee06040830184610a1c565b949350505050565b600081519050919050565b600081905092915050565b6000610f0982610ee8565b610f138185610ef3565b9350610f238185602086016108d9565b80840191505092915050565b6000819050919050565b610f4a610f45826106ff565b610f2f565b82525050565b6000610f5c8285610efe565b9150610f688284610f39565b6020820191508190509392505050565b610f81816106ff565b82525050565b610f9081610735565b82525050565b6000608082019050610fab6000830187610f78565b610fb86020830186610f87565b610fc56040830185610f78565b610fd26060830184610f78565b9594505050505056fea264697066735822122004680319b91c59b1e9e366c4cf0fec83db387f7f4b1ebd9b611506f77dae2ed064736f6c63430008180033",
    "linkReferences": {},
    "deployedLinkReferences": {}
}